:020000040000FA
:060000000A128A110C280F
:10000800FE00030EF1000A08F2000A128A119E2966
:100018000A128A110F28F901FA0183010A128A11BA
:10002800D429F80036283F30831203139F059B28F4
:10003800831203131F083F3940389F009B288312FF
:1000480003131F083F3980389F009B28C030831254
:1000580003139F049B28831203131F083F3980381A
:100068009F009B287808F600F7017708003A0319E3
:100078003E282F287608013A03191728033A03194E
:100088001C28013A03192328073A03192A282F287C
:10009800C3309F05D5281F08C33904389F00D528C9
:1000A8001F08C33908389F00D5281F08C3390C38E2
:1000B8009F00D5281F08C33910389F00D5281F086E
:1000C800C33914389F00D5281F08C33918389F0032
:1000D800D5281F08C3391C389F00D5281F08C339E5
:1000E80020389F00D5281F08C33924389F00D528F9
:1000F8001F08C33928389F00D5281F08C3392C3852
:100108009F00D5281F08C33930389F00D5281F08FD
:10011800C33934389F00D5281F08C33938389F00A1
:10012800D5283C309F04D528C3309F05D5287308AF
:10013800F600F7017708003A0319A32898287608EB
:10014800003A03194C28013A03194F28033A0319B6
:100158005428013A03195928073A03195E28013A25
:1001680003196328033A03196828013A03196D280B
:100178000F3A03197228013A03197728033A031929
:100188007C28013A03198128073A03198628013A7D
:1001980003198B28033A03199028013A0319952863
:1001A80098287403031DD928DA28DE288316031338
:1001B8009F17F128831603139F13F1281F129F120C
:1001C80007291F169F1607291F129F1607291F1692
:1001D8009F1207291F129F1207297508F600F701B9
:1001E8007708003A0319F928EE287608013A031926
:1001F800E228033A0319E528013A0319E828073ADF
:100208000319EB28EE28831203131F148B170B17FF
:10021800831603130C170800F50062293F30F3001A
:100228007308F6009C290630F3007308F6009C2931
:100238005B30F3007308F6009C294F30F300730815
:10024800F6009C296630F3007308F6009C296D308F
:10025800F3007308F6009C297D30F3007308F6005C
:100268009C290730F3007308F6009C297F30F300BF
:100278007308F6009C296F30F3007308F6009C2978
:100288007730F3007308F6009C297C30F30073087C
:10029800F6009C293930F3007308F6009C295E307B
:1002A800F3007308F6009C297930F3007308F60010
:1002B8009C297130F3007308F6009C297508F30037
:1002C800F4017408003A03196A299C297308003A52
:1002D80003191229013A03191729033A03191C298A
:1002E800013A03192129073A03192629013A031962
:1002F8002B29033A03193029013A031935290F3AF2
:1003080003193A29013A03193F29033A03194429E1
:10031800013A03194929073A03194E29013A0319E1
:100328005329033A03195829013A03195D299C29CD
:10033800760808000B1CA129A229B42983120313EB
:10034800061CA729A829AD290130F00070088707E5
:10035800B329861CB029B129B329013087020B10B3
:100368000B1DB729B829BF29F901F90A0B11EC307F
:10037800831203138100831203130C1FC429C52998
:10038800CD290C131E08F0007008FA000B11EC3090
:10039800810072088A00710E8300FE0E7E0E09002D
:1003A8000A128A1101220A128A11023083120313D7
:1003B800A0002008F300F401F50103300A128A11A5
:1003C80015200A128A11831203139F147903031D3F
:1003D800EE29EF29F129F9019F147A080F390A1239
:1003E8008A1110210A128A118312031388007A08CD
:1003F8008700EA290A128A110C2883160317880134
:1004080089010815831603138801870106148614C9
:1004180005108510051585118312031388018701BE
:100428000514851085118B170B178B150B10831668
:10043800031316149614811281118111011181146C
:0A04480001108B160B11F9010800DA
:04400E00F120FF3F5F
:00000001FF
