:020000040000FA
:060000000A128A110C280F
:10000800FE00030EF1000A08F2000A128A11EC2918
:100018000A128A110F28F801F901FA0183010A125C
:100028008A11972983120313A0002F283F309F05B8
:1000380094281F083F3940389F0094281F083F39EB
:1000480080389F009428C0309F0494281F083F39A7
:1000580080389F0094282008F600F7017708003AB6
:10006800031937282A287608013A03191A28033A67
:1000780003191D28013A03192228073A03192728CA
:100088002A28C3309F05CE281F08C33904389F008B
:10009800CE281F08C33908389F00CE281F08C33947
:1000A8000C389F00CE281F08C33910389F00CE286F
:1000B8001F08C33914389F00CE281F08C3391838C1
:1000C8009F00CE281F08C3391C389F00CE281F0860
:1000D800C33920389F00CE281F08C33924389F0011
:1000E800CE281F08C33928389F00CE281F08C339D7
:1000F8002C389F00CE281F08C33930389F00CE28DF
:100108001F08C33934389F00CE281F08C339383830
:100118009F00CE283C309F04CE28C3309F05CE28B0
:100128007308F600F7017708003A03199C2891280C
:100138007608003A03194528013A03194828033A72
:1001480003194D28013A03195228073A0319572869
:10015800013A03195C28033A03196128013A031983
:1001680066280F3A03196B28013A03197028033AD5
:1001780003197528013A03197A28073A03197F28C1
:10018800013A03198428033A03198928013A031903
:100198008E2891287403031DD228D328D7288316C4
:1001A80003139F17EA28831603139F13EA281F12C5
:1001B8009F1200291F169F1600291F129F1600293B
:1001C8001F169F1200291F129F1200297508F6009A
:1001D800F7017708003A0319F228E7287608013A68
:1001E8000319DB28033A0319DE28013A0319E12829
:1001F800073A0319E428E728831203131F148B17FF
:100208000B17831603130C170800F5005B293F3002
:10021800F3007308F60095290630F3007308F6001A
:1002280095295B30F3007308F60095294F30F300E9
:100238007308F60095296630F3007308F6009529CF
:100248006D30F3007308F60095297D30F3007308CC
:10025800F60095290730F3007308F60095297F30DA
:10026800F3007308F60095296F30F3007308F60061
:1002780095297730F3007308F60095297C30F30050
:100288007308F60095293930F3007308F6009529AC
:100298005E30F3007308F60095297930F30073088F
:1002A800F60095297130F3007308F6009529750852
:1002B800F300F4017408003A0319632995297308B7
:1002C800003A03190B29013A03191029033A0319B3
:1002D8001529013A03191A29073A03191F29013A5E
:1002E80003192429033A03192929013A03192E2944
:1002F8000F3A03193329013A03193829033A031924
:100308003D29013A03194229073A03194729013AB5
:1003180003194C29033A03195129013A031956299B
:100328009529760808000A128A1130220A128A11C1
:10033800023083120313A1002108F300F401F50130
:1003480003300A128A1116200A128A118312031323
:100358009F147903031DB129B229B429F9019F1407
:100368007803031DB829B929C62985107A080F39D9
:100378000A128A1109210A128A11831203138800AA
:100388000514DF297808031DCA29CB29DF290510A0
:100398007A08A10004300310A10CFF3E031DCF29E9
:1003A80021080F390A128A1109210A128A118312A7
:1003B8000313880085147A0807020318E429E5293D
:1003C800E7298515AD298511AD290A128A110C284E
:1003D8000B1CEF29F029022A83120313061CF529A6
:1003E800F629FB290130F00070088707012A861CCE
:1003F800FE29FF29012A013087020B100B1D052A4F
:10040800062A1B2AF901F90A0B11F5308312031386
:1004180081007803031D112A122A142AF8011B2AC5
:100428007808031D182A192A1B2AF801F80A8312CA
:1004380003130C1F202A212A292A0C131E08F00056
:100448007008FA000B11F530810072088A00710EED
:100458008300FE0E7E0E09008316031788018901AA
:1004680008158316031388018701061486140510DE
:10047800851005158511831203138801870105145A
:10048800851085118B170B178B150B10831603130B
:100498001614961481128111811101118114011011
:1004A8008B160B11F901F801F53083120313810043
:0204B80008003A
:04400E00F120FF3F5F
:00000001FF
