:020000040000FA
:060000000A128A110C280F
:10000800FE00030EF1000A08F2000A128A113228D3
:100018000A128A110F2883010A128A114F2883169F
:1000280003178801890183160313880187010614C1
:100038008614051085100515851183120313880190
:10004800F83087000510851085118B170B178B1555
:100058000B10831603131614961408000B1C35286E
:100068003628482883120313061C3B283C284128BD
:100078000130F000700887074728861C4428452867
:100088004728013087020B1072088A00710E83001E
:10009800FE0E7E0E09000A128A1113200A128A1116
:0800A80054280A128A110C28E9
:04400E00F120FF3F5F
:00000001FF
